:020000040800F2
:1000000000280020AD0900083D0900084309000848
:10001000490900084F0900085509000800000000C0
:100020000000000000000000000000005B09000864
:100030006709000800000000730900087F09000834
:10004000F5090008F5090008F5090008F509000898
:10005000F5090008F5090008F5090008F509000888
:10006000F5090008F5090008F5090008F509000878
:10007000F5090008F5090008F5090008F509000868
:10008000F5090008F5090008F5090008F509000858
:10009000F5090008F5090008F5090008F509000848
:1000A000F5090008F5090008F5090008F509000838
:1000B0008D090008F509000800000000F509000896
:1000C000F50900080000000000000000F509000824
:1000D00000000000F5090008F50900080000000014
:1000E000F5090008F5090008F509000800000000FE
:1000F0000000000000000000000000000000000000
:0C01000000000000000000005FF808F1A3
:10010C0010B5054C237833B9044B13B10448AFF345
:10011C0000800123237010BD20000020000000008F
:10012C002C20000808B5034B1BB103490348AFF35F
:10013C00008008BD00000000240000202C200008D6
:10014C0080B582B000AF78607B68002B23D1002291
:10015C000121C24800F05AFF00220221BF4800F0E2
:10016C0055FF00220421BD4800F050FF0022082159
:10017C00BA4800F04BFF00221021B84800F046FFAF
:10018C0000222021B54800F041FF01224021B34854
:10019C0000F03CFF5DE17B68012B23D101220121A2
:1001AC00AE4800F033FF00220221AC4800F02EFFD5
:1001BC0000220421A94800F029FF01220821A748A8
:1001CC0000F024FF01221021A44800F01FFF01229F
:1001DC002021A24800F01AFF012240219F4800F084
:1001EC0015FF36E17B68022B23D1002201219B48AD
:1001FC0000F00CFF00220221984800F007FF0122BA
:10020C000421964800F002FF00220821934800F0D8
:10021C00FDFE00221021914800F0F8FE0122202161
:10022C008E4800F0F3FE002240218C4800F0EEFED8
:10023C000FE17B68032B23D100220121874800F0BA
:10024C00E5FE00220221854800F0E0FE0022042198
:10025C00824800F0DBFE00220821804800F0D6FE28
:10026C00012210217D4800F0D1FE012220217B4883
:10027C0000F0CCFE00224021784800F0C7FEE8E0F8
:10028C007B68042B23D101220121744800F0BEFEAF
:10029C0000220221714800F0B9FE002204216F48AF
:1002AC0000F0B4FE012208216C4800F0AFFE0122E0
:1002BC0010216A4800F0AAFE00222021674800F0B5
:1002CC00A5FE00224021654800F0A0FEC1E07B683D
:1002DC00052B23D100220121604800F097FE01225A
:1002EC0002215E4800F092FE002204215B4800F0DF
:1002FC008DFE00220821594800F088FE01221021B1
:10030C00564800F083FE00222021544800F07EFE67
:10031C0000224021514800F079FE9AE07B68062BC0
:10032C0023D1002201214D4800F070FE0122022150
:10033C004A4800F06BFE00220421484800F066FE9B
:10034C0000220821454800F061FE0022102143489C
:10035C0000F05CFE00222021404800F057FE0022F5
:10036C0040213E4800F052FE73E07B68072B23D1FE
:10037C0000220121394800F049FE002202213748B1
:10038C0000F044FE00220421344800F03FFE01221C
:10039C000821324800F03AFE012210212F4800F0CB
:1003AC0035FE012220212D4800F030FE0122402193
:1003BC002A4800F02BFE4CE07B68082B23D100224E
:1003CC000121264800F022FE00220221234800F0E1
:1003DC001DFE00220421214800F018FE00220821F5
:1003EC001E4800F013FE002210211C4800F00EFEE7
:1003FC0000222021194800F009FE00224021174854
:10040C0000F004FE25E07B68092B22D1002201219B
:10041C00124800F0FBFD00220221104800F0F6FD0E
:10042C00002204210D4800F0F1FD002208210B48A8
:10043C0000F0ECFD01221021084800F0E7FD00223D
:10044C002021064800F0E2FD00224021034800F084
:10045C00DDFD00BF0837BD4680BD00BF000C01406C
:10046C0080B582B000AF78607B68032B7AD801A28C
:10047C0052F823F091040008C90400080105000893
:10048C003905000800224021394800F0BFFD012247
:10049C008021374800F0BAFD01224FF480713448B6
:1004AC0000F0B4FD01224FF40071314800F0AEFDB4
:1004BC00304B1B681846FFF743FE54E001224021E5
:1004CC002B4800F0A3FD00228021294800F09EFD5E
:1004DC0001224FF48071264800F098FD01224FF460
:1004EC000071234800F092FD224B5B681846FFF721
:1004FC0027FE38E0012240211D4800F087FD012233
:10050C0080211B4800F082FD00224FF480711848B6
:10051C0000F07CFD01224FF40071154800F076FDCF
:10052C00144B9B681846FFF70BFE1CE00122402180
:10053C000F4800F06BFD012280210D4800F066FD94
:10054C0001224FF480710A4800F060FD00224FF444
:10055C000071074800F05AFD064BDB681846FFF7A0
:10056C00EFFD00E000BF00BF0837BD4680BD00BFF7
:10057C00000801400000002080B483B000AF786018
:10058C0039607968184B83FB01239A10CB17D21A68
:10059C0013469B0013445B00CA1A144B5A607B68C9
:1005AC00114A82FB03129210DB17D31A0F4A136005
:1005BC003B680D4A82FB03129210DB17D31A0B4ACD
:1005CC0093603968084B83FB01239A10CB17D21A1E
:1005DC0013469B0013445B00CA1A044BDA6000BF3D
:1005EC000C37BD4680BC704767666666000000200D
:1005FC0080B584B000AF00F0F9F900F031F800F0EC
:10060C00B7F800F069F8154801F046F90B23FB60C8
:10061C000823BB6032237B607B6801337B607B6883
:10062C003B2B04DD00237B60BB680133BB60BB68E4
:10063C003B2B04DD0023BB60FB680133FB60FB68D4
:10064C00172B01DD0023FB60B968F868FFF794FFF6
:10065C004FF47A7000F02CFADEE700BF3C0000206B
:10066C0080B590B000AF07F118032822002118467E
:10067C0001F0AAFC3B1D00221A605A609A60DA60F5
:10068C001A610223BB610123BB621023FB620023AE
:10069C007B6307F11803184600F0D0FC0346002BCF
:1006AC0001D000F0F9F80F237B600023BB6000231E
:1006BC00FB6000233B6100237B613B1D002118463E
:1006CC0000F03EFF0346002B01D000F0E5F800BF20
:1006DC004037BD4680BD000080B586B000AF07F145
:1006EC00080300221A605A609A60DA603B460022C6
:1006FC001A605A601D4B4FF080421A601B4B41F63A
:10070C003F725A60194B00229A60184B0922DA602A
:10071C00164B00221A61154B00229A61134801F006
:10072C006BF80346002B01D000F0B6F84FF4805361
:10073C00BB6007F1080319460C4801F001FA0346A7
:10074C00002B01D000F0A8F800233B6000237B6055
:10075C003B461946054801F0CDFB0346002B01D062
:10076C0000F09AF800BF1837BD4680BD3C00002051
:10077C0080B586B000AF07F1080300221A605A60FA
:10078C009A60DA60214B9B69204A43F00403936121
:10079C001E4B9B6903F004037B607B681B4B9B69BE
:1007AC001A4A43F008039361184B9B6903F0080342
:1007BC003B603B6800224FF47C71154800F026FC2E
:1007CC0000227F21134800F021FC4FF47C73BB60A6
:1007DC000123FB6000233B6102237B6107F10803CB
:1007EC0019460B4800F096FA7F23BB600123FB608F
:1007FC0000233B6102237B6107F10803194605487E
:10080C0000F088FA00BF1837BD4680BD00100240CA
:10081C0000080140000C014080B582B000AF786048
:10082C001A4B1B68002B2DDD184B1B68013B174A1C
:10083C001360164B1B68002B24DC144B64221A60CB
:10084C00134B1B680422934219DA114B1B68184690
:10085C00FFF706FE0E4B1B68012B05D10022102161
:10086C000C4800F0D3FB04E001221021094800F0F1
:10087C00CDFB074B1B680133054A136002E0044BA8
:10088C0000221A6000BF0837BD4680BD1000002052
:10089C00840000200008014080B400AF72B600BF95
:1008AC00FEE7000080B483B000AF0E4B9B690D4A8D
:1008BC0043F0010393610B4B9B6903F001037B60D5
:1008CC007B68084BDB69074A43F08053D361054BC7
:1008DC00DB6903F080533B603B6800BF0C37BD46BF
:1008EC0080BC70470010024080B584B000AF7860C7
:1008FC007B681B68B3F1804F13D10C4BDB690B4A3F
:10090C0043F00103D361094BDB6903F00103FB6086
:10091C00FB68002200211C2000F0C5F91C2000F00F
:10092C00DEF900BF1037BD4680BD00BF001002408D
:10093C0080B400AFFEE780B400AFFEE780B400AF38
:10094C00FEE780B400AFFEE780B400AFFEE780B4F2
:10095C0000AF00BFBD4680BC704780B400AF00BF85
:10096C00BD4680BC704780B400AF00BFBD4680BCA4
:10097C00704780B500AF00F07FF800BF80BD00006D
:10098C0080B500AF024800F0D3FF00BF80BD00BFB0
:10099C003C00002080B400AF00BFBD4680BC704757
:1009AC00FFF7F8FF0B480C490C4A002302E0D4581F
:1009BC00C4500433C4188C42F9D3094A094C00239F
:1009CC0001E013600432A242FBD301F005FBFFF7F8
:1009DC000FFE70470000002020000020702000084F
:1009EC00200000208C000020FEE7000080B500AF46
:1009FC00084B1B68074A43F010031360032000F0F8
:100A0C0047F90F2000F008F8FFF74CFF00231846B9
:100A1C0080BD00BF0020024080B582B000AF78607E
:100A2C00124B1A68124B1B7819464FF47A73B3FBAE
:100A3C00F1F3B2FBF3F3184600F05FF90346002B19
:100A4C0001D001230EE07B680F2B0AD800227968B5
:100A5C004FF0FF3000F027F9064A7B681360002343
:100A6C0000E0012318460837BD4680BD1400002065
:100A7C001C0000201800002080B400AF054B1B7830
:100A8C001A46054B1B681344034A136000BFBD464E
:100A9C0080BC70471C0000208800002080B400AF90
:100AAC00024B1B681846BD4680BC7047880000206E
:100ABC0080B584B000AF7860FFF7F0FFB8607B685A
:100ACC00FB60FB68B3F1FF3F05D00A4B1B781A465D
:100ADC00FB681344FB6000BFFFF7E0FF0246BB68F6
:100AEC00D31AFA689A42F7D800BF00BF1037BD4638
:100AFC0080BD00BF1C00002080B485B000AF7860C2
:100B0C007B6803F00703FB600C4BDB68BB60BA68C7
:100B1C004FF6FF031340BB60FB681A02BB6813431C
:100B2C0043F0BF6343F40033BB60044ABB68D3603B
:100B3C0000BF1437BD4680BC704700BF00ED00E01D
:100B4C0080B400AF044BDB681B0A03F007031846A4
:100B5C00BD4680BC704700BF00ED00E080B483B0A0
:100B6C0000AF0346FB7197F90730002B0BDBFB79C9
:100B7C0003F01F02064997F907305B09012000FAC0
:100B8C0002F241F8232000BF0C37BD4680BC7047F1
:100B9C0000E100E080B483B000AF03463960FB7124
:100BAC0097F90730002B0ADB3B68DAB20C4997F94E
:100BBC0007301201D2B20B4483F800230AE03B68E1
:100BCC00DAB20849FB7903F00F03043B1201D2B2ED
:100BDC000B441A7600BF0C37BD4680BC704700BF73
:100BEC0000E100E000ED00E080B489B000AFF860F7
:100BFC00B9607A60FB6803F00703FB61FB69C3F122
:100C0C000703042B28BF0423BB61FB690433062BA9
:100C1C0002D9FB69033B00E000237B614FF0FF32FC
:100C2C00BB6902FA03F3DA43BB681A407B699A404A
:100C3C004FF0FF317B6901FA03F3D9437B680B401A
:100C4C00134318462437BD4680BC704780B582B02C
:100C5C0000AF78607B68013BB3F1807F01D3012347
:100C6C000FE00A4A7B68013B53600F214FF0FF30C5
:100C7C00FFF790FF054B00229A60044B07221A6085
:100C8C00002318460837BD4680BD00BF10E000E0C9
:100C9C0080B582B000AF78607868FFF72DFF00BF99
:100CAC000837BD4680BD80B586B000AF0346B9603D
:100CBC007A60FB7300237B61FFF742FF78617A68EF
:100CCC00B9687869FFF790FF024697F90F30114623
:100CDC001846FFF75FFF00BF1837BD4680BD80B5D3
:100CEC0082B000AF0346FB7197F907301846FFF747
:100CFC0035FF00BF0837BD4680BD80B582B000AF60
:100D0C0078607868FFF7A2FF034618460837BD469F
:100D1C0080BD000080B48BB000AF786039600023D8
:100D2C007B6200233B6261E101227B6A02FA03F3DE
:100D3C00FB613B681B68FA691340BB61BA69FB69CC
:100D4C009A4240F050813B685B68974A93425ED070
:100D5C00954A934275D8954A934258D0934A9342F8
:100D6C006FD8934A934252D0914A934269D8914A90
:100D7C0093424CD08F4A934263D88F4A934246D0C9
:100D8C008D4A93425DD8122B2AD8122B59D801A226
:100D9C0052F823F01B0E0008F50D0008070E000892
:100DAC00490E00084F0E00084F0E00084F0E0008A9
:100DBC004F0E00084F0E00084F0E00084F0E000893
:100DCC004F0E00084F0E00084F0E00084F0E000883
:100DDC004F0E00084F0E0008FD0D0008110E000804
:100DEC00764A934213D02CE03B68DB683B6229E0E7
:100DFC003B68DB6804333B6224E03B68DB68083308
:100E0C003B621FE03B68DB680C333B621AE03B68DB
:100E1C009B68002B02D104233B6213E03B689B6868
:100E2C00012B05D108233B627B68FA691A6109E042
:100E3C0008233B627B68FA695A6103E000233B623A
:100E4C0000E000BFBB69FF2B01D87B6801E07B6829
:100E5C0004337B61BB69FF2B02D87B6A9B0002E0E9
:100E6C007B6A083B9B003B617B691A680F213B69DD
:100E7C0001FA03F3DB431A40396A3B6901FA03F3C5
:100E8C001A437B691A603B685B6803F08053002B44
:100E9C0000F0A9804A4B9B69494A43F001039361D6
:100EAC00474B9B6903F00103BB60BB68454A7B6AF7
:100EBC009B08023352F82330FB607B6A03F0030378
:100ECC009B000F2202FA03F3DB43FA681340FB602A
:100EDC007B683D4A93420DD07B683C4A934207D0D5
:100EEC007B683B4A934201D1022304E0032302E0D6
:100EFC00012300E000237A6A02F00302920093407F
:100F0C00FA681343FB602F497B6A9B080233FA682B
:100F1C0041F823203B685B6803F48013002B06D058
:100F2C002C4B9A682B49BB6913438B6006E0294B09
:100F3C009A68BB69DB43274913408B603B685B684D
:100F4C0003F40013002B06D0224BDA682149BB694D
:100F5C001343CB6006E01F4BDA68BB69DB431D49CA
:100F6C001340CB603B685B6803F40033002B06D066
:100F7C00184B5A681749BB6913434B6006E0154B75
:100F8C005A68BB69DB43134913404B603B685B6891
:100F9C0003F48033002B1FD00E4B1A680D49BB692C
:100FAC0013430B601FE000BF000032100000311033
:100FBC00000022100000211000001210000011107F
:100FCC00001002400000014000080140000C0140EC
:100FDC0000100140000401400B4B1A68BB69DB4355
:100FEC00094913400B607B6A01337B623B681A68CA
:100FFC007B6A22FA03F3002B7FF496AE00BF00BF8E
:10100C002C37BD4680BC70470004014080B483B0CF
:10101C0000AF78600B467B8013467B707B78002B8F
:10102C0003D07A887B681A6103E07B881A047B689A
:10103C001A6100BF0C37BD4680BC704780B586B0C6
:10104C0000AF78607B68002B01D1012372E27B68D2
:10105C001B6803F00103002B00F08780924B5B6848
:10106C0003F00C03042B0CD08F4B5B6803F00C03C8
:10107C00082B12D18C4B5B6803F48033B3F5803FA3
:10108C000BD1894B1B6803F40033002B6CD07B68AD
:10109C005B68002B68D101234CE27B685B68B3F57D
:1010AC00803F06D1804B1B687F4A43F4803313602A
:1010BC002EE07B685B68002B0CD17B4B1B687A4A5B
:1010CC0023F480331360784B1B68774A23F4802316
:1010DC0013601DE07B685B68B3F5A02F0CD1724BDD
:1010EC001B68714A43F4802313606F4B1B686E4A74
:1010FC0043F4803313600BE06B4B1B686A4A23F498
:10110C0080331360684B1B68674A23F48023136099
:10111C007B685B68002B13D0FFF7C0FC386108E0DC
:10112C00FFF7BCFC02463B69D31A642B01D903239D
:10113C0000E25D4B1B6803F40033002BF0D014E08D
:10114C00FFF7ACFC386108E0FFF7A8FC02463B69EE
:10115C00D31A642B01D90323ECE1534B1B6803F422
:10116C000033002BF0D100E000BF7B681B6803F05C
:10117C000203002B63D04C4B5B6803F00C03002B79
:10118C000BD0494B5B6803F00C03082B1CD1464B6E
:10119C005B6803F48033002B16D1434B1B6803F0C0
:1011AC000203002B05D07B681B69012B01D00123A6
:1011BC00C0E13D4B1B6823F0F8027B685B69DB00E8
:1011CC00394913430B603AE07B681B69002B20D034
:1011DC00364B01221A60FFF761FC386108E0FFF71B
:1011EC005DFC02463B69D31A022B01D90323A1E112
:1011FC002D4B1B6803F00203002BF0D02A4B1B680D
:10120C0023F0F8027B685B69DB00274913430B6012
:10121C0015E0264B00221A60FFF740FC386108E00D
:10122C00FFF73CFC02463B69D31A022B01D903237E
:10123C0080E11D4B1B6803F00203002BF0D17B688F
:10124C001B6803F00803002B3AD07B689B69002BCA
:10125C0019D0174B01221A60FFF720FC386108E007
:10126C00FFF71CFC02463B69D31A022B01D903235E
:10127C0060E10D4B5B6A03F00203002BF0D0012000
:10128C0000F09CFA1CE00A4B00221A60FFF706FCE7
:10129C0038610FE0FFF702FC02463B69D31A022BC0
:1012AC0008D9032346E100BF00100240000042426F
:1012BC0080044242924B5B6A03F00203002BE9D19B
:1012CC007B681B6803F00403002B00F0A68000234E
:1012DC00FB758B4BDB6903F08053002B0DD1884BD6
:1012EC00DB69874A43F08053D361854BDB6903F09C
:1012FC008053BB60BB680123FB75824B1B6803F4F6
:10130C008073002B18D17F4B1B687E4A43F480738B
:10131C001360FFF7C3FB386108E0FFF7BFFB024621
:10132C003B69D31A642B01D9032303E1754B1B686A
:10133C0003F48073002BF0D07B68DB68012B06D1A3
:10134C006F4B1B6A6E4A43F0010313622DE07B68FE
:10135C00DB68002B0CD16A4B1B6A694A23F0010332
:10136C001362674B1B6A664A23F0040313621CE08A
:10137C007B68DB68052B0CD1614B1B6A604A43F020
:10138C00040313625E4B1B6A5D4A43F00103136254
:10139C000BE05B4B1B6A5A4A23F001031362584B58
:1013AC001B6A574A23F0040313627B68DB68002B2B
:1013BC0015D0FFF773FB38610AE0FFF76FFB0246AD
:1013CC003B69D31A41F28832934201D90323B1E02D
:1013DC004B4B1B6A03F00203002BEED014E0FFF71B
:1013EC005DFB38610AE0FFF759FB02463B69D31AF3
:1013FC0041F28832934201D903239BE0404B1B6A94
:10140C0003F00203002BEED1FB7D012B05D13C4BED
:10141C00DB693B4A23F08053D3617B68DB69002B8B
:10142C0000F08780364B5B6803F00C03082B61D00F
:10143C007B68DB69022B46D1334B00221A60FFF725
:10144C002DFB386108E0FFF729FB02463B69D31AF4
:10145C00022B01D903236DE0294B1B6803F00073A9
:10146C00002BF0D17B681B6AB3F5803F08D1244B6D
:10147C005B6823F400327B689B68214913434B6003
:10148C001F4B5B6823F474127B68196A7B685B6A78
:10149C000B431B4913434B601B4B01221A60FFF794
:1014AC00FDFA386108E0FFF7F9FA02463B69D31AF6
:1014BC00022B01D903233DE0114B1B6803F0007391
:1014CC00002BF0D035E0104B00221A60FFF7E6FA43
:1014DC00386108E0FFF7E2FA02463B69D31A022BA7
:1014EC0001D9032326E0064B1B6803F00073002B85
:1014FC00F0D11EE07B68DB69012B07D1012319E0D9
:10150C000010024000700040600042420B4B5B68D0
:10151C00FB60FB6803F480327B681B6A9A4206D13D
:10152C00FB6803F470127B685B6A9A4201D001235A
:10153C0000E0002318461837BD4680BD001002405D
:10154C0080B584B000AF786039607B68002B01D126
:10155C000123D0E06A4B1B6803F007033A689A42F8
:10156C0010D9674B1B6823F0070265493B6813438E
:10157C000B60634B1B6803F007033A689A4201D077
:10158C000123B8E07B681B6803F00203002B20D01A
:10159C007B681B6803F00403002B05D0594B5B6878
:1015AC00584A43F4E06353607B681B6803F00803FC
:1015BC00002B05D0534B5B68524A43F46053536085
:1015CC00504B5B6823F0F0027B689B684D491343DA
:1015DC004B607B681B6803F00103002B40D07B68D9
:1015EC005B68012B07D1474B1B6803F40033002BBE
:1015FC0015D101237FE07B685B68022B07D1414B3F
:10160C001B6803F00073002B09D1012373E03D4BE1
:10161C001B6803F00203002B01D101236BE0394B53
:10162C005B6823F003027B685B68364913434B60AD
:10163C00FFF734FAF8600AE0FFF730FA0246FB686D
:10164C00D31A41F28832934201D9032353E02D4B34
:10165C005B6803F00C027B685B689B009A42EBD1E1
:10166C00274B1B6803F007033A689A4210D2244BAD
:10167C001B6823F0070222493B6813430B60204B85
:10168C001B6803F007033A689A4201D0012332E049
:10169C007B681B6803F00403002B08D0194B5B68B4
:1016AC0023F4E0627B68DB68164913434B607B686C
:1016BC001B6803F00803002B09D0124B5B6823F462
:1016CC0060527B681B69DB000E4913434B6000F0D2
:1016DC0021F802460B4B5B681B0903F00F030A4908
:1016EC00CB5C22FA03F3094A1360094B1B681846BA
:1016FC00FFF792F9002318461037BD4680BD00BF96
:10170C000020024000100240442000081400002079
:10171C001800002080B487B000AF0023FB600023CA
:10172C00BB6000237B6100237B6000233B611E4B6D
:10173C005B68FB60FB6803F00C03042B02D0082BE6
:10174C0003D027E0194B3B6127E0FB689B0C03F0AF
:10175C000F03174AD35C7B60FB6803F48033002BC8
:10176C0010D0114B5B685B0C03F00103114AD35C86
:10177C00BB607B680D4A03FB02F2BB68B2FBF3F360
:10178C007B6104E07B680C4A02FB03F37B617B69A1
:10179C003B6102E0054B3B6100BF3B6918461C37BF
:1017AC00BD4680BC704700BF0010024000127A009A
:1017BC00542000086420000800093D0080B485B066
:1017CC0000AF78600A4B1B680A4AA2FB03235B0A32
:1017DC007A6802FB03F3FB6000BFFB685A1EFA60D9
:1017EC00002BF9D100BF00BF1437BD4680BC704739
:1017FC0014000020D34D621080B582B000AF786029
:10180C007B68002B01D1012341E07B6893F83D30CC
:10181C00DBB2002B06D17B68002283F83C20786871
:10182C00FFF762F87B68022283F83D207B681A6818
:10183C007B6804331946104600F06EFA7B6801226F
:10184C0083F846207B68012283F83E207B680122C6
:10185C0083F83F207B68012283F840207B680122BB
:10186C0083F841207B68012283F842207B680122A7
:10187C0083F843207B68012283F844207B68012293
:10188C0083F845207B68012283F83D20002318460D
:10189C000837BD4680BD000080B485B000AF7860CD
:1018AC007B6893F83D30DBB2012B01D0012335E08E
:1018BC007B68022283F83D207B681B68DA687B68B2
:1018CC001B6842F00102DA607B681B68164A93427F
:1018DC0009D07B681B68B3F1804F04D07B681B6810
:1018EC00124A934211D17B681B689B6803F0070373
:1018FC00FB60FB68062B10D07B681B681A687B6842
:10190C001B6842F001021A6007E07B681B681A68CA
:10191C007B681B6842F001021A60002318461437DA
:10192C00BD4680BC704700BF002C01400004004045
:10193C0080B582B000AF78607B681B681B6903F0D0
:10194C000203022B22D17B681B68DB6803F00203C5
:10195C00022B1BD17B681B686FF002021A617B683B
:10196C0001221A777B681B689B6903F00303002B29
:10197C0003D0786800F0B4F905E0786800F0A7F9B6
:10198C00786800F0B6F97B6800221A777B681B68D0
:10199C001B6903F00403042B22D17B681B68DB68F2
:1019AC0003F00403042B1BD17B681B686FF004024B
:1019BC001A617B6802221A777B681B689B6903F4A7
:1019CC004073002B03D0786800F08AF905E0786842
:1019DC0000F07DF9786800F08CF97B6800221A77AA
:1019EC007B681B681B6903F00803082B22D17B68FA
:1019FC001B68DB6803F00803082B1BD17B681B6892
:101A0C006FF008021A617B6804221A777B681B68E6
:101A1C00DB6903F00303002B03D0786800F060F956
:101A2C0005E0786800F053F9786800F062F97B689B
:101A3C0000221A777B681B681B6903F01003102BBC
:101A4C0022D17B681B68DB6803F01003102B1BD1C1
:101A5C007B681B686FF010021A617B6808221A778A
:101A6C007B681B68DB6903F44073002B03D0786838
:101A7C0000F036F905E0786800F029F9786800F094
:101A8C0038F97B6800221A777B681B681B6903F0A6
:101A9C000103012B0ED17B681B68DB6803F001038B
:101AAC00012B07D17B681B686FF001021A61786803
:101ABC00FEF7B2FE7B681B681B6903F08003802B6A
:101ACC000ED17B681B68DB6803F08003802B07D189
:101ADC007B681B686FF080021A61786800F06BFA03
:101AEC007B681B681B6903F04003402B0ED17B689D
:101AFC001B68DB6803F04003402B07D17B681B6835
:101B0C006FF040021A61786800F0FCF87B681B6883
:101B1C001B6903F02003202B0ED17B681B68DB684C
:101B2C0003F02003202B07D17B681B686FF0200289
:101B3C001A61786800F036FA00BF0837BD4680BDE0
:101B4C0080B584B000AF786039600023FB737B688C
:101B5C0093F83C30012B01D10223B4E07B680122C5
:101B6C0083F83C207B68022283F83D207B681B684D
:101B7C009B68BB60BB6823F07703BB60BB6823F436
:101B8C007F43BB607B681B68BA689A603B681B68C4
:101B9C00B3F5005F3ED0B3F5005F00F28780B3F57C
:101BAC00805F00F08680B3F5805F7FD8702B1AD0F1
:101BBC00702B7BD8602B50D0602B77D8502B3CD01F
:101BCC00502B73D8402B58D0402B6FD8302B64D06F
:101BDC00302B6BD8202B60D0202B67D8002B5CD0FF
:101BEC00102B5AD062E07B6818683B6899683B6898
:101BFC005A683B68DB6800F05EF97B681B689B6881
:101C0C00BB60BB6843F07703BB607B681B68BA683A
:101C1C009A604FE07B6818683B6899683B685A6823
:101C2C003B68DB6800F047F97B681B689A687B6847
:101C3C001B6842F480429A603CE07B6818683B6801
:101C4C0059683B68DB681A4600F0BEF87B681B6875
:101C5C005021184600F015F92CE07B6818683B6899
:101C6C0059683B68DB681A4600F0DCF87B681B6837
:101C7C006021184600F005F91CE07B6818683B6889
:101C8C0059683B68DB681A4600F09EF87B681B6855
:101C9C004021184600F0F5F80CE07B681A683B68A8
:101CAC001B681946104600F0ECF803E00123FB73A7
:101CBC0000E000BF7B68012283F83D207B68002296
:101CCC0083F83C20FB7B18461037BD4680BD80B4A2
:101CDC0083B000AF786000BF0C37BD4680BC704746
:101CEC0080B483B000AF786000BF0C37BD4680BCB9
:101CFC00704780B483B000AF786000BF0C37BD462E
:101D0C0080BC704780B483B000AF786000BF0C37E4
:101D1C00BD4680BC7047000080B485B000AF7860D1
:101D2C0039607B681B68FB607B68254A934207D04F
:101D3C007B68B3F1804F03D07B68224A934208D171
:101D4C00FB6823F07003FB603B685B68FA68134325
:101D5C00FB607B681A4A934207D07B68B3F1804FD3
:101D6C0003D07B68174A934208D1FB6823F4407375
:101D7C00FB603B68DB68FA681343FB60FB6823F08D
:101D8C0080023B685B691343FB607B68FA681A60EE
:101D9C003B689A687B68DA623B681A687B689A626F
:101DAC007B68074A934203D13B681A697B681A63C4
:101DBC007B6801225A6100BF1437BD4680BC704756
:101DCC00002C01400004004080B487B000AFF860E4
:101DDC00B9607A60FB681B6A7B61FB681B6A23F045
:101DEC000102FB681A62FB689B693B613B6923F04B
:101DFC00F0033B617B681B013A6913433B617B69D0
:101E0C0023F00A037B617A69BB6813437B61FB682F
:101E1C003A699A61FB687A691A6200BF1C37BD4641
:101E2C0080BC704780B487B000AFF860B9607A604E
:101E3C00FB681B6A7B61FB681B6A23F01002FB6862
:101E4C001A62FB689B693B613B6923F470433B61FD
:101E5C007B681B033A6913433B617B6923F0A00346
:101E6C007B61BB681B017A6913437B61FB683A6930
:101E7C009A61FB687A691A6200BF1C37BD4680BC48
:101E8C00704780B485B000AF786039607B689B6820
:101E9C00FB60FB6823F07003FB603A68FB6813433C
:101EAC0043F00703FB607B68FA689A6000BF143745
:101EBC00BD4680BC704780B487B000AFF860B96095
:101ECC007A603B60FB689B687B617B6923F47F4392
:101EDC007B613B681A027B681A43BB6813437A69BF
:101EEC0013437B61FB687A699A6000BF1C37BD465F
:101EFC0080BC704780B485B000AF786039607B6877
:101F0C0093F83C30012B01D1022341E07B68012284
:101F1C0083F83C207B68022283F83D207B681B6899
:101F2C005B68FB607B681B689B68BB60FB6823F08D
:101F3C007003FB603B681B68FA681343FB607B68AB
:101F4C001B68FA685A607B681B68144A934209D074
:101F5C007B681B68B3F1804F04D07B681B68104A08
:101F6C0093420CD1BB6823F08003BB603B685B6879
:101F7C00BA681343BB607B681B68BA689A607B685D
:101F8C00012283F83D207B68002283F83C2000234B
:101F9C0018461437BD4680BC704700BF002C01406A
:101FAC000004004080B483B000AF786000BF0C37F1
:101FBC00BD4680BC704780B483B000AF786000BF72
:101FCC000C37BD4680BC704703460244934200D197
:101FDC00704703F8011BF9E770B500260C4D0D4C4A
:101FEC00641BA410A64209D100F01AF800260A4D71
:101FFC000A4C641BA410A64205D170BD55F8043BD5
:10200C0098470136EEE755F8043B98470136F2E75E
:10201C006820000868200008682000086C20000870
:10202C00F8B500BFF8BC08BC9E467047F8B500BFB9
:08203C00F8BC08BC9E46704789
:102044000000000000000000010203040607080964
:1020540002030405060708090A0B0C0D0E0F1010E5
:042064000102000075
:04206800310100083A
:04206C000D0100085A
:102070000100000002000000030000000400000056
:10208000640000000024F4001000000001000000C3
:04000005080009AD39
:00000001FF
